{
  "contractName": "Lot",
  "abi": [
    {
      "anonymous": false,
      "inputs": [
        {
          "indexed": true,
          "internalType": "uint256",
          "name": "_LotteryId",
          "type": "uint256"
        }
      ],
      "name": "addNumdEvent",
      "type": "event"
    },
    {
      "constant": true,
      "inputs": [
        {
          "internalType": "uint256",
          "name": "",
          "type": "uint256"
        }
      ],
      "name": "lotteries",
      "outputs": [
        {
          "internalType": "uint256",
          "name": "id",
          "type": "uint256"
        },
        {
          "internalType": "uint256",
          "name": "value",
          "type": "uint256"
        },
        {
          "internalType": "string",
          "name": "player",
          "type": "string"
        },
        {
          "internalType": "uint256",
          "name": "numLucky",
          "type": "uint256"
        }
      ],
      "payable": false,
      "stateMutability": "view",
      "type": "function"
    },
    {
      "constant": true,
      "inputs": [],
      "name": "lotteriesCount",
      "outputs": [
        {
          "internalType": "uint256",
          "name": "",
          "type": "uint256"
        }
      ],
      "payable": false,
      "stateMutability": "view",
      "type": "function"
    },
    {
      "constant": false,
      "inputs": [
        {
          "internalType": "uint256",
          "name": "_value",
          "type": "uint256"
        },
        {
          "internalType": "string",
          "name": "_player",
          "type": "string"
        }
      ],
      "name": "addLottery",
      "outputs": [],
      "payable": false,
      "stateMutability": "nonpayable",
      "type": "function"
    },
    {
      "constant": false,
      "inputs": [
        {
          "internalType": "uint256",
          "name": "num",
          "type": "uint256"
        }
      ],
      "name": "addLuckyNumber",
      "outputs": [],
      "payable": false,
      "stateMutability": "nonpayable",
      "type": "function"
    }
  ],
  "bytecode": "0x608060405234801561001057600080fd5b50610512806100206000396000f3fe608060405234801561001057600080fd5b506004361061004c5760003560e01c80631398e0761461005157806350d9533e1461010d5780638bd15f851461012b578063affdd017146101f0575b600080fd5b61007d6004803603602081101561006757600080fd5b810190808035906020019092919050505061021e565b6040518085815260200184815260200180602001838152602001828103825284818151815260200191508051906020019080838360005b838110156100cf5780820151818401526020810190506100b4565b50505050905090810190601f1680156100fc5780820380516001836020036101000a031916815260200191505b509550505050505060405180910390f35b6101156102e6565b6040518082815260200191505060405180910390f35b6101ee6004803603604081101561014157600080fd5b81019080803590602001909291908035906020019064010000000081111561016857600080fd5b82018360208201111561017a57600080fd5b8035906020019184600183028401116401000000008311171561019c57600080fd5b91908080601f016020809104026020016040519081016040528093929190818152602001838380828437600081840152601f19601f8201169050808301925050505050505091929192905050506102ec565b005b61021c6004803603602081101561020657600080fd5b8101908080359060200190929190505050610378565b005b6000602052806000526040600020600091509050806000015490806001015490806002018054600181600116156101000203166002900480601f0160208091040260200160405190810160405280929190818152602001828054600181600116156101000203166002900480156102d65780601f106102ab576101008083540402835291602001916102d6565b820191906000526020600020905b8154815290600101906020018083116102b957829003601f168201915b5050505050908060030154905084565b60015481565b600160008154809291906001019190505550604051806080016040528060015481526020018381526020018281526020016064815250600080600154815260200190815260200160002060008201518160000155602082015181600101556040820151816002019080519060200190610366929190610438565b50606082015181600301559050505050565b60016000815480929190600101919050555060405180608001604052806001548152602001606481526020016040518060400160405280600681526020017f4e6f626f64790000000000000000000000000000000000000000000000000000815250815260200182815250600080600154815260200190815260200160002060008201518160000155602082015181600101556040820151816002019080519060200190610427929190610438565b506060820151816003015590505050565b828054600181600116156101000203166002900490600052602060002090601f016020900481019282601f1061047957805160ff19168380011785556104a7565b828001600101855582156104a7579182015b828111156104a657825182559160200191906001019061048b565b5b5090506104b491906104b8565b5090565b6104da91905b808211156104d65760008160009055506001016104be565b5090565b9056fea265627a7a72315820d3d5d354cd4d9b214b03993e39692cb9350a0f5240ae3c14f0a6c3efe831f92764736f6c634300050c0032",
  "source": "pragma solidity >=0.4.21 <0.6.0;\r\n\r\ncontract Lot {\r\n    // Model a Lottery\r\n    struct Lottery {\r\n        uint id;\r\n        uint value;\r\n        string player;\r\n        uint numLucky;\r\n   }\r\n\r\n    mapping(uint => Lottery) public lotteries;\r\n    uint public lotteriesCount;\r\n\r\n    // addNumd event\r\n    event addNumdEvent (\r\n        uint indexed _LotteryId\r\n    );\r\n\r\n    function addLottery (uint _value, string memory _player) public {\r\n        lotteriesCount ++;\r\n        lotteries[lotteriesCount] = Lottery(lotteriesCount, _value, _player, 100);\r\n    }\r\n\r\n    function addLuckyNumber (uint num) public {\r\n        lotteriesCount ++;\r\n        lotteries[lotteriesCount] = Lottery(lotteriesCount, 100, \"Nobody\", num);\r\n    }\r\n}\r\n",
  "sourcePath": "F:/20191/DA/Lottery/contracts/Lot.sol",
  "compiler": {
    "name": "solc",
    "version": "0.5.12+commit.7709ece9.Emscripten.clang"
  },
  "schemaVersion": "3.0.19",
  "updatedAt": "2020-01-02T07:11:40.021Z",
  "networkType": "ethereum",
  "devdoc": {
    "methods": {}
  },
  "userdoc": {
    "methods": {}
  }
}